:020000040800F2
:10000000380A0020C9570008E1130008E31300086C
:1000100000000000000000000000000000000000E0
:10002000000000000000000000000000E5130008D0
:100030000000000000000000E7130008E9130008BA
:100040009F14000800000000F5130008834B00080F
:100050009B4B0008A751000857560008FF130008E3
:100060000000000093560008A7570008B357000887
:10007000ED570008EF570008F15700080000000096
:10008000F3570008F557000800000000F757000874
:10009000F9570008FB570008FD570008FF570008F4
:1000A00001580008035800080558000817140008F4
:1000B0000758000838B504002BD021683848394A61
:1000C000394BA569002D06D099420CD091420AD037
:1000D0009721490005E0994205D0914203D0FF21C4
:1000E000343101F043F86920205C002804D16821F4
:1000F0006054200001F0A8F8242069216054206891
:100100000168012291430160200000F072FA012889
:1001100001D1012032BD606A002802D0200000F029
:1001200073FB20684168214A0A4042602068816868
:100130000822914381602068016801220A4302601D
:10014000200000F069FC32BD38B5040001D1012067
:1001500032BD20681449884207D01249884204D031
:10016000882189000E4801F001F82420692160549B
:100170002068016801229143016000252068056024
:100180002068456020688560200001F09AF8E566E7
:100190000020692160546A2160546834257032BDA2
:1001A000BC0900080044004000380140FFF7FFFF91
:1001B000FEB505000C006920285C202860D1002CC9
:1001C0000BD0002A09D0A86880214901884206D1B5
:1001D0002869002803D1E00701D50120FEBD682071
:1001E000285C01284CD00120682168540026EE6666
:1001F00021206921685401F0B7F80700684680881B
:1002000050216852684680885221685205E0208853
:10021000C005C00D29680885A41C5220285A002852
:100220001BD05220285A401E52216852029800903A
:100230003B0000228021280000F0F5FB002816D1A9
:10024000A86880214901884202D128690028DED0AF
:10025000207829680885641CDFE7029800903B003D
:1002600000224021280000F0DEFB002801D00320FE
:10027000FEBD20206921685468352E700020FEBD27
:100280000220FEBDFCB583B004000D006A20205C96
:1002900020286DD1002D0BD0002A09D080277F01A6
:1002A000A068B84206D12069002803D1E80701D52B
:1002B00001205EE06820205C012859D001206821DF
:1002C00060540026E66622206A21605401F04CF852
:1002D00002906846808958216052684680895A2178
:1002E0006052A168FF20B94204D12169002907D1D9
:1002F000434805E0002905D12169002900D07F206D
:100300005C21605268465C21615A818006E0206869
:10031000808C6946898801402980AD1C5A20205A6A
:1003200000281ED05A20205A401E5A21605204989C
:100330000090029B00222021200000F074FB002886
:1003400001D0032015E0A068B84202D1206900283E
:10035000DDD02068808C69468988014029706D1C39
:10036000DCE720206A21605468342670002000E019
:10037000022005B0F0BDB0B56A23C35C202B3DD18F
:1003800000290BD0002A09D0846880256D01AC4279
:1003900006D10369002B03D1CB0701D50120B0BDE5
:1003A0006823C35C012B29D001236827C35541650D
:1003B000582142525A214252FF21AC4204D10269D3
:1003C000002A07D10E4905E0002C05D10269002A58
:1003D00000D07F215C2281520021C16622226A2442
:1003E0000255C15501688A6813438B600068016833
:1003F000902252000A4302600020B0BD0220B0BD2E
:10040000FF010000F8B504000127206801682C4AAC
:100410000A40026020688168B9438160216E00252E
:100420008020002907D022689268024002D0694AE1
:100430004A6300E04D63616E4026002907D02268C0
:100440009268324002D0644A4A6300E04D632168FA
:100450008A6810400ED08868802290438860206EA1
:10046000002807D000F098FF002802D0206E4563D6
:1004700000E00027206881680E400DD0816840228E
:1004800091438160606E002806D000F085FF00284F
:1004900014D0606E456301E0002F0FD052216552E9
:1004A0005A216552E5660F202168086220206922E2
:1004B000A0546A216054200000F093F80020F2BD9F
:1004C0001FFEFFFF70B504002368D869196805078F
:1004D0002D0F07D1820605D58A0603D5200000F02E
:1004E0007EFB70BD9A68002D63D001252A4203D19E
:1004F000902676000E405CD0C60705D5CE0503D504
:100500001D62E36E1D43E56604230225860706D5BA
:10051000D60704D526683562E66E1E43E6664607B2
:1005200006D5D60704D526683362E36E1D43E5661B
:100530000825030708D58B0601D4D20704D5226805
:100540001562E26E2A43E266E26E002A40D080061F
:1005500004D5880602D5200000F041FB4026E06E5D
:10056000054003D12068806830401CD0200000F096
:1005700091FA206881680E4011D081684022914331
:100580008160606E00280AD014494163606E00F0FB
:1005900003FF00281CD0606E416B884770BD2000AF
:1005A00000F064FF70BD200000F060FF0020E066F6
:1005B00070BD020605D50A0603D5200000F0CEFA6C
:1005C00070BD400604D5480602D5200000F0FAFAB6
:1005D00070BD0000190B0008270B0008050B000870
:1005E0007047704700216830017000207047C06E6E
:1005F0007047F8B506001024002569460D70724F4B
:1006000070687249884203D37149380000F0AEFD2A
:10061000B068002806D02102884203D06D49380016
:1006200000F0A4FDF068002806D06102884203D0E3
:100630006949380000F09AFD306900280AD0A1010C
:10064000884207D0C021C900884203D063493800DE
:1006500000F08CFD706901000C22914301D100284B
:1006600003D15F49380000F081FDB06900280DD04A
:10067000210188420AD04900884207D0C021890060
:10068000884203D05749380000F070FD306A0028D6
:1006900006D0E101884203D04C31380000F066FDFD
:1006A000F069002806D0E102884203D04E493800A4
:1006B00000F05CFD376838684C490140B068084379
:1006C0003169014370690843F16901433960786811
:1006D00047490140F06808437860B86845490140DF
:1006E000B0690843316A0143B960434887420FD17A
:1006F000424800688007800F0DD0022806D003D33F
:10070000032809D1022407E0042405E0082403E0BB
:100710003B48874200D100240120F169C203914285
:1007200029D1002C06D0022C07D0042C09D0082C8B
:100730000DD014E001F08EFA05E071684808314AE6
:1007400008E001F05BFA716840004A0802E0716855
:1007500048085200801801F0F4FA050001E06946EB
:100760000870954828402904490C4907490F01435E
:100770003068C16024E0002C06D0022C07D0042C85
:1007800009D0082C12D019E001F064FA05E0716874
:100790004808BE4A0CE001F031FA71684A08801836
:1007A00001F0CFFA80B23168C86009E0716848088A
:1007B000801801F0C6FA80B2F86001E0694608705E
:1007C00068460078F2BD0000BC090008818D5B001E
:1007D00046080000470800004808000049080000DB
:1007E0004A0800004B0800004D080000F369FFFFB5
:1007F000FFCFFFFFFFF4FFFF003801403010024041
:10080000004400400024F40070B504006BA5606A49
:10081000FF2803D99E49280000F0A8FC2420205C72
:10082000C00711D5A06A002807D08021890288421C
:1008300003D0A049280000F099FC206841689E4A36
:100840000A40A16A114341602420205C800711D531
:10085000E06A002807D080214902884203D09749E6
:10086000280000F083FC20684168954A0A40E16A4C
:10087000114341602420205C400711D5206B0028E3
:1008800007D08021C902884203D08E49280000F099
:100890006DFC206841688C4A0A40216B114341601D
:1008A0002420205C000711D5606B002807D0802130
:1008B0000902884203D08549280000F057FC2068CF
:1008C0004168834A0A40616B114341602420205CE7
:1008D000C00611D5A06B002807D0802149018842AD
:1008E00003D07C49280000F041FC206881687A4AE6
:1008F0000A40A16B114381602420205C800611D541
:10090000E06B002807D080218901884203D0734919
:10091000280000F02BFC20688168714A0A40E16BD6
:10092000114381602420205C40062DD520686D494C
:10093000884203D06C49280000F018FC206C802607
:100940007603002805D0B04203D06849280000F0A3
:100950000DFC20684168664A0A40216C11434160E1
:10096000206CB04210D1606C002806D07100884223
:1009700003D06049280000F0F9FB206841685E4A16
:100980000A40616C114341602420205C000611D5AF
:10099000A06C002807D080210903884203D0574962
:1009A000280000F0E3FB20684168554A0A40A16C2A
:1009B0001143416070BD0000F0FF0000433A5C55F8
:1009C000736572735C41646D696E6973747261748E
:1009D0006F725C6C6F72615C656E64706F696E746F
:1009E000315C447269766572735C53544D333246A0
:1009F0003078785F48414C5F4472697665725C5329
:100A000072635C73746D3332663078785F68616CE2
:100A10005F756172742E630068300021416020228E
:100A200042708270E0E5FEB504000F000025089ECC
:100A30002068C0693840B84201D1012000E00020A0
:100A40006946097988421ED10020C0438642EFD012
:100A5000002E05D000F088FC0299401A8642E7D2A9
:100A6000206801687C4A0A4002602068816801228F
:100A7000914381602020692160546A216054683468
:100A800025700320FEBD0020FEBD000000127A008C
:100A9000A908000001680A68704B13400B600168E8
:100AA0008A6801239A438A6020216A300170704766
:100AB00000000000AE080000FFFFFDFFB5080000C9
:100AC000FFFFFEFFBC080000FFFFFBFFC3080000A4
:100AD000FF7FFFFFCA080000FFEFFFFFD108000003
:100AE000FFDFFFFF00380140D8080000D9080000F0
:100AF000FFFFEFFFDE080000FFFF9FFFE60800009A
:100B0000FFFFF7FF80B5406A0100523100220A81E1
:100B10000A8000F0ABFC01BD80B5406A0021026E86
:100B20005163426E05E080B5406A0021426E516318
:100B3000026E002A02D0526B002A0ED15223C152FB
:100B40005A23C152C1660F21026811622021692314
:100B5000C1546A228154FFF744FD01BD6921415C03
:100B600021292DD15221415A00290AD101680A6850
:100B700080239A430A600068016840220A430260A9
:100B80001CE081688022520191420CD10169002948
:100B900009D1C16C0988C905C90D02681185C16CEC
:100BA000891CC16405E0C16C4A1CC26409780268F2
:100BB00011855221415A491E523001800020704750
:100BC0000220704780B501680A6840239A430A6092
:100BD000202169228154FFF703FD002002BD10B5DA
:100BE0005C21415A02686A23C35C222B2CD1928C6F
:100BF000836880246401A34209D10369002B06D1D4
:100C00001140426D1180416D891C416504E0436DC6
:100C10005C1C4465114019705A21415A491E5A22E0
:100C2000815209040ED101680A680C4B13400B6015
:100C300001688A6801239A438A6020216A228154CC
:100C400000F002FC002010BD906908210143916171
:100C5000022010BD000000005FFEFFFFDFFEFFFF6F
:100C6000F0B587B0002769460F82CF608F6000F033
:100C700057FB00F004F900F0CFF900F040F900F064
:100C800079F9B84C25005435B748E86096208001C2
:100C900028616F61AF61EF610C2028626F62AF6203
:100CA000EF622F6320006030FFF704FA002800D0C5
:100CB000FEE7AE48E8672600D43696208001306013
:100CC0007760B760F760042030617761B761F761E2
:100CD00037622000D030FFF7EDF9002800D0FEE7A2
:100CE000A348F06605203067C948B0677067A02048
:100CF00040002018059001F07BF8002800D0FEE7A6
:100D0000072001F039F901F006FBC24800F02FFB83
:100D1000072001F023F901F001FC03A8801C0190D9
:100D200004A8009002AB5B1C02AA02A9891C03A8BC
:100D300001F025FE002803D10020C04307B0F0BD1C
:100D4000684646893000FF2100F0F8FF68703000E7
:100D5000FF2100F0F3FFA97030001E2100F0EEFF2C
:100D60002971E878C721014030200843E870C0208D
:100D70002870E8783821014045200843E870CC20ED
:100D8000687101F017FC01F047FC6846017A808920
:100D900001F062FB012001F095FE642000F0E7FA0B
:100DA000002001F08FFE642000F0E1FA012001F044
:100DB00089FE642000F0DBFA002001F083FE64204D
:100DC00000F0D5FA01F071FB01F01CFF02F036F8DB
:100DD0005021200002F0D8F9651C6846008A68722C
:100DE0006846C089A87202E0A87A02F02CF905983A
:100DF00001F051F801F0CCFA002601F0D5FF02E035
:100E0000012000F0B4FA01F059FB0028F8D002F0FC
:100E1000BDF9E878012802D0E878022800D101263F
:100E20006878002808D06F70200002F0E5F8E879B3
:100E3000002801D001F05AFC2878002803D02F7038
:100E4000200002F0A1F8A878002809D0AF70200097
:100E500002F09AF8A879012802D1200002F0CCF81B
:100E60003100200001F0C1FA0028C0D101F076FA6B
:100E70000128B9D001003C2002F012F9B7E710B503
:100E800094B01A20089001200B900D9010210C9125
:100E90000E910F900024109408A800F027FB002862
:100EA00000D0FEE70720009001949020029080205F
:100EB000C00003900021684600F0B2FD002800D079
:100EC000FEE79C4804900694C009059004A802F02F
:100ED00001FA002800D0FEE700F0B9FEFA218900EF
:100EE00000F02FFF01F056F8042001F067F800220F
:100EF00000210020C04301F023F814B010BD3EB51E
:100F00008D4C8E48206000206060A060E06001256C
:100F1000256104216161A061E56120626062FF21B9
:100F2000C231A162E06220636563200002F0B6FA7C
:100F3000002800D0FEE700952803019003200290CE
:100F40006946200002F060FC002800D0FEE7112076
:100F500000906946200002F057FC002800D0FEE710
:100F600037BD00000400002000380140004400406C
:100F70000030004070B590B0714D72482860002478
:100F80006C601420A860FA20C000E8602C616C61DD
:100F9000AC61280002F09AFD002800D0FEE70BA803
:100FA000048084700E940F9400220BA9280002F094
:100FB00029FE002800D0FEE701266846067046702C
:100FC0008670C47000226946280002F039FF0028AC
:100FD00000D0FEE701A80480847002940494059474
:100FE0000694079408942030067030020A9000227C
:100FF00001A9280003F016F8002800D0FEE7F1044C
:10100000280003F0FDFA002800D0FEE710B070BD04
:10101000350C0000B80B0000F0B587B08021090343
:10102000494802680A430260026811400091009931
:101030008021C90302680A430260026811400091DE
:1010400000998021890202680A4302600268114007
:10105000009100998021C90202680A430260006879
:10106000014000910098E026760000223100902097
:10107000C00503F007FD354F00223549380003F065
:1010800001FD01225103380003F0FCFCC0200002E6
:101090000190032402940025039501A92D4803F033
:1010A00015FBC32001900294039501A92A4803F07F
:1010B0000DFB2A4801900294039501A99020C005D8
:1010C00003F004FB302001900295039501A99020C4
:1010D000C00503F0FBFA01960126029603950495DC
:1010E00001A99020C00503F0F1FA1D480190029477
:1010F000039501A9380003F0E9FA1A480190029615
:101100000395049501A9380003F0E0FAB0030190BB
:1011100015480290039501A9380003F0D7FA002280
:101120000021072000F00CFF072000F017FF07B098
:10113000F0BD000001000100540100200024014026
:10114000C80100200028004014100240000400489C
:101150003084000000080048001400480198000096
:10116000CF1B000030A4000000002110704730B4F5
:10117000012100220368001D002B0BD00468001D14
:101180000C4202D04D466D1E64192260241D1B1FA7
:10119000F0D0FAE730BC704780B5012058490A68A2
:1011A00002430A600A6810400090009880204005C1
:1011B0004A6802434A60496808400090009800224B
:1011C00000210420C04300F0BBFE002200210120CA
:1011D000C04300F0B5FE002200210020C04300F013
:1011E000AFFE01BD00684749884200D0704700B596
:1011F00087B0480D42490A6802430A6009680840FE
:10120000009000980220019003200290002003909B
:1012100001A99020C00503F059FA07B000BD00688D
:101220003949884200D0704780B53848016880222B
:1012300012020A43026000220021022000F080FE18
:10124000022000F08BFE01BDF0B587B0066890204B
:10125000C0050121032200230224294D2C4FBE4248
:1012600019D18E032F6837432F602D682E400096CA
:10127000009D55020195029403930492059101A9E2
:1012800003F024FA002201211B2000F059FE1B204C
:1012900000F064FE13E01F4FBE4210D14E046F6891
:1012A00037436F606D682E400096009D0C250195B8
:1012B000029403930492059101A903F007FA07B081
:1012C000F0BD80B502689020C0050D49104B9A42D0
:1012D0000BD10A68104B13400B60C021C90003F00A
:1012E00031FB1B2000F048FE01BD0A4B9A4206D19B
:1012F0004A680A4B13404B600C2103F023FB01BDED
:101300001810024000240140002800402010024034
:101310000038014000440040FFBFFFFFFFFFFDFF1A
:1013200080B51B48016810220A430260002000F0CB
:1013300004F8FFF731FF002002BD10B5040000F0F3
:1013400086FCFA21890000F0FCFC00F023FE00225C
:1013500021000020C04300F0F3FD002010BD0D4827
:101360000168491C016070470A480068704731B540
:10137000FFF7FAFF0400009D0020C043854200D023
:101380006D1CFFF7F1FF001BA842FAD331BD00002E
:10139000002002402C02002070B500220024012110
:1013A0002123C35C022B03D004228263012415E0B5
:1013B00003681D680E26B5431D6003681D688D43D4
:1013C0001D60036C01259D40C36B5D602123C154EA
:1013D00020214254416B0A0000D08847200070BD94
:1013E0007047FEE77047704780B5FFF7B8FF00F021
:1013F00005FE01BD80B5194803F053F801BD80B565
:101400008020C00103F058FB102003F055FB202082
:1014100003F052FB01BD80B51148FFF753F801BD41
:101420001048C068010000D1704780B5804701BDF9
:101430008021C901884200D1704780B50949896877
:101440000A0000D0884701BD00680749884200D0E3
:10145000704780B501F0F6F901BD0000C801002019
:1014600064000020180200200038014038B5040054
:10147000FFF7BDF802210422104201D0236819624F
:101480000123184201D025682B62014001D0216858
:101490000A620821084001D02068016231BDFEE7E0
:1014A0000C48016881220A43026041680A4A0A40E6
:1014B00042600168094A0A4002600168084A0A401D
:1014C000026000214160C1620163816005480649F4
:1014D00008607047001002400CF8FFF0FFFFF6FEB6
:1014E000FFFFFBFF00127A0000000020F0B583B080
:1014F000040004D189214900AB48FFF737FE20687A
:10150000002806D0C00604D1FF211431A648FFF7F9
:101510002DFEA64D2078C00758D56068002808D059
:10152000012806D0052804D0FF211A319E48FFF774
:101530001DFE8027BF0268680C210140042907D0E6
:1015400068680C21014008290AD16868C00307D5E2
:10155000286807403AD06068002837D10120FEBDD6
:101560006168012902D1286879080BE0AC48AD4ACE
:1015700000290AD0052908D128687900014329608B
:101580002868D1430143296005E029680A402A60A0
:10159000296808402860606800280BD0FFF7E4FE47
:1015A00006002868384011D1FFF7DEFE801B652851
:1015B000F7D320E2FFF7D8FE06002868384005D0B0
:1015C000FFF7D2FE801B6528F7D314E202272068BC
:1015D00038402AD0E068002806D0012804D0FF2136
:1015E0004E317148FFF7C2FD2069202804D3A7219E
:1015F00049006D48FFF7BAFD68680C21014007D02B
:1016000068680C21014008292FD16868C0032CD4D8
:101610002868384002D0E06801289FD12868F82166
:1016200088432169C90001432960207800074ED50D
:10163000E06900283BD0012807D0C72149005A485B
:10164000FFF794FDE069002831D0686A0121014369
:101650006962FFF789FE0600686A384037D1FFF7F4
:1016600083FE801B0328F7D3C5E1E06800282868C3
:101670000ED0012101432960FFF776FE060028689D
:101680003840CBD1FFF770FE801B0328F7D3B2E1BF
:10169000012188432860FFF767FE0600286838406C
:1016A000C3D0FFF761FE801B0328F7D3A3E1686A6C
:1016B000012188436862FFF757FE0600686A3840D8
:1016C00005D0FFF751FE801B0328F7D393E1207864
:1016D000400775D5002069460870A068002808D02A
:1016E000012806D0052804D0DD2149002E48FFF747
:1016F0003DFDF806E969014009D1E9690143E96165
:10170000E9690840019001980120694608709448F1
:101710000068C00512D492480068A90D01439048A2
:101720000160FFF721FE06008D480068C00505D462
:10173000FFF71AFE801B6528F6D35CE1A06801283C
:1017400009D0002801D1286A0AE00528286A07D1B3
:10175000042101432962286A01210143296206E02C
:10176000012188432862286A042188432862A068EE
:1017700000280CD0FFF7F8FD0600286A384017D182
:10178000FFF7F2FD801B9E498842F6D333E1FFF755
:10179000EBFD0600286A38400AD0FFF7E5FD801B04
:1017A00097498842F6D326E1941C000800100240B5
:1017B00068460078002803D0E86992490140E96151
:1017C0002078C00637D56069002809D0012807D0E5
:1017D0000421C943884203D0690D8B48FFF7C6FC3A
:1017E000A069202803D389498748FFF7BFFC6069B7
:1017F000012800D0B6E0686B042101436963686B7F
:10180000012101436963FFF7AFFD0600686B3840B3
:101810000AD1FFF7A9FD801B0328F7D3EBE000BF37
:10182000FFFFFBFFFFFFFEFF686BF8218843A16904
:10183000C90001436963206A00280AD001280AD040
:10184000022808D09D2189006F48FFF78FFC206A8D
:10185000002800D1D1E068680C210140082900D19E
:101860007CE63F066A4E206A022800D0B5E0606A36
:10187000002806D0790A884203D066496248FFF7FB
:1018800075FCA06A002837D0F909884234D0490095
:10189000884231D0C021090388422DD0790988427D
:1018A0002AD0A0214903884226D0C021490388427A
:1018B00022D0E021490388421ED0390988421BD03A
:1018C00090218903884217D0A0218903884213D030
:1018D000B021890388420FD0C021890388420BD0F0
:1018E000D0218903884207D0E0218903884203D0B0
:1018F00049494548FFF73AFCE06A002821D0012811
:101900001FD002281DD003281BD0042819D0052879
:1019100017D0062815D0072813D0082811D0092879
:101920000FD00A280DD00B280BD00C2809D00D2879
:1019300007D00E2805D00F2803D038493248FFF7CA
:1019400015FC286806402E60FFF70EFD060028688B
:10195000384024D0FFF708FD801B0328F7D34AE066
:10196000007000400421C9438842686B03D1042100
:101970008843686358E7042101436963686B012168
:1019800088436863FFF7F0FC0600686B384000D1BD
:1019900051E7FFF7E9FC801B0328F6D32BE0E86A48
:1019A0000F218843E16A0143E96268688D4901407B
:1019B000A06A0843616A01436960286879080143A5
:1019C0002960FFF7D1FC06002868384015D1FFF7E1
:1019D000CBFC801B0328F7D30DE0286806402E605F
:1019E000FFF7C2FC06002868384006D0FFF7BCFCB1
:1019F000801B0328F7D30320FEBD0020FEBD00009E
:101A000089130000FFFFFFEF941C00080102000093
:101A1000FFFFFFFE7D0200007E0200007F0200004B
:101A2000F2B582B0040003D16F497148FFF79EFB05
:101A30002078400703D16D496D48FFF797FB029866
:101A4000002806D0012804D0B72189006848FFF794
:101A50008DFB0127FF43012666480068304002994C
:101A600088420AD2634800683840014361480160F7
:101A7000006830400299884239D15F4D2078800754
:101A80001CD5A068002813D0802811D090280FD032
:101A9000A0280DD0B0280BD0C02809D0D02807D05E
:101AA000E02805D0F02803D06F495148FFF75EFBCE
:101AB0006868F0218843A16801436960206830406C
:101AC0004ED06068002813D0012808D002280BD01F
:101AD00066494748FFF74AFB6068012802D1286839
:101AE000800303E0022803D12868800103D449E081
:101AF0002868800746D568680321884361680143E8
:101B00006960FFF731FC0090606801280CD16868BB
:101B10000C210140042923D0FFF726FC0099401A2C
:101B200053498842F3D319E002280CD168680C218C
:101B30000140082914D0FFF717FC0099401A4C49BE
:101B40008842F3D30AE068680C21014008D0FFF70F
:101B50000BFC0099401A46498842F4D30320FEBD8D
:101B6000029824490968314088420DD22148006812
:101B70000740029838431F490860086806400298E9
:101B8000864201D00120FEBD207840071BD5E068C9
:101B9000002812D0290D88420FD0A021C900884208
:101BA0000BD0C021C900884207D0E021C90088427B
:101BB00003D030490E48FFF7D9FA68682E49014032
:101BC000E0680843686000F019F82C496A6812065A
:101BD000120F895CC8402A4908600020FFF7ADFB5E
:101BE0000020FEBDFFFFC2FFDA020000DB020000A2
:101BF000941C0008002002400010024030B589B05B
:101C000004A800BF3AA1102202F0A0FF684600BF5E
:101C10003BA1102202F09AFF1A490A681A480C23C5
:101C20001340082B11D10F2304AC950C1D40645DAB
:101C30006D46896A0B40E95CD20303D500F081F858
:101C4000604302E020001149484309B030BD0C4810
:101C5000006870470A4800680D490A4A1268520530
:101C6000520F895CC8407047F3020000FA0200007E
:101C70008913000063030000FFF8FFFFF45600081B
:101C8000000000200410024000127A0000093D000C
:101C9000E4570008433A5C55736572735C41646DA8
:101CA000696E6973747261746F725C6C6F72615C7F
:101CB000656E64706F696E74315C447269766572CA
:101CC000735C53544D3332463078785F48414C5FF3
:101CD0004472697665725C5372635C73746D3332FF
:101CE000663078785F68616C5F7263632E630000B2
:101CF00002030405060708090A0B0C0D0E0F10104D
:101D00000102030405060708090A0B0C0D0E0F104B
:101D1000F446002804D4494200F013F840426047DA
:101D20004042002905D45FD000F00BF84042494200
:101D30006047494200F005F84942604703460B43BB
:101D4000E6D40022030A8B420BD203098B4219D23C
:101D500043088B422ED2411A00D20146524110460E
:101D60007047FF2209023FD012068B4205D31212A0
:101D700009028B4201D31212090203098B4219D3C3
:101D800000E0090AC3098B4201D3CB01C01A5241BA
:101D900083098B4201D38B01C01A524143098B4204
:101DA00001D34B01C01A524103098B4201D30B01ED
:101DB000C01A5241C3088B4201D3CB00C01A524112
:101DC00083088B4201D38B00C01A524143088B42D7
:101DD00001D34B00C01A5241884200D3401A5241ED
:101DE000CFD201461046704708B502F0C9FE08BDC3
:101DF00070B5040001D1012070BD00BF2CA5206882
:101E00002749884203D0B5212800FFF7AFF9606861
:101E100000280FD001280DD002280BD0032809D0AC
:101E2000042807D0052805D0062803D0B6212800AD
:101E3000FFF79CF980267601A068B04203D3B72152
:101E40002800FFF793F9E068B04203D3B8212800D7
:101E5000FFF78CF92068134901601349016061683C
:101E60004160A1688160FFF77FFA05002068C168C2
:101E7000002906D0FFF778FA401B2828F6D3032064
:101E800070BDE16802698A4201D0016101E0074941
:101E90000160002070BD05490068016000207047A6
:101EA00000300040CCCC000055550000AAAA00002C
:101EB000433A5C55736572735C41646D696E697316
:101EC000747261746F725C6C6F72615C656E647069
:101ED0006F696E74315C447269766572735C5354D9
:101EE0004D3332463078785F48414C5F44726976B2
:101EF00065725C5372635C73746D333266307878EC
:101F00005F68616C5F697764672E630010B5820754
:101F1000D30EFF249C40E2438907090E9940030039
:101F200004D531481B071B0F083B00E02F489B08D6
:101F30009B00C01803681A401143016010BD0000E7
:101F400038B504000D00042D03D39B212EA0FFF70C
:101F50000DF929002000FFF7D9FF31BD10B50400AD
:101F600003D5AB2128A0FFF701F90120E106C90E36
:101F700088401F49086010BD10B5040003D5BB217F
:101F800021A0FFF7F3F80120E106C90E88401949A6
:101F9000086010BD10B5401E80214904884201D35D
:101FA000012010BD144C606003210020C043FFF7E6
:101FB000ADFF0020A0600721216010BD10B50E4CC0
:101FC00004280BD0002804D0FF2136310EA0FFF7E3
:101FD000CDF8206804218843206010BD20680421CA
:101FE0000143216010BD00001CED00E000E400E0B2
:101FF00000E100E080E100E010E000E080B500F0EA
:1020000001F801BD70470000433A5C557365727377
:102010005C41646D696E6973747261746F725C6C3B
:102020006F72615C656E64706F696E74315C44726E
:1020300069766572735C53544D3332463078785FFD
:1020400048414C5F4472697665725C5372635C739D
:10205000746D3332663078785F68616C5F636F727D
:102060007465782E6300000000B585B040200090B4
:102070000120019000200290039065E170B586B0C8
:1020800001009020C00500243025491E012906D9F1
:10209000891E1DD0491F1BD05D3919D01EE0009547
:1020A000A84901910294694602F010FB00950125B0
:1020B000019502940394A84E6946300002F006FB95
:1020C000680300900195029503946946300003E08F
:1020D000009501940294694602F0F8FA06B070BDCA
:1020E00010B59D4C00221021200002F0CBFC0022F4
:1020F0002021200002F0C6FC10BD80B50100902018
:10210000C005002907D00122402102F0BBFC0A20B3
:10211000FFF72DF901BD0022402102F0B3FC01BD03
:1021200038B59024E4051021200002F09BFC050046
:102130002021200002F096FC002D05D1002801D1BD
:10214000032032BD022032BD002801D1042032BD5F
:10215000012032BD82B0002101910AE0FA218900FC
:10216000019101994A1E01920029FAD16946097824
:10217000491C6A461170694609788142EED302B063
:10218000704738B50500FFF7ABFFAD4C2570A57063
:1021900000206168884700206070AA49087001200B
:1021A000C87031BD38B5A64C6178002922D01028FE
:1021B00001D020281ED100F011F905006078032815
:1021C00006D1032D02D0E078A84213D103200FE0FE
:1021D0006078012802D0607802280BD1012D09D146
:1021E0000F20FFF7B7FF00F0F9F8A84202D1012055
:1021F000FFF7C7FF31BD10B5914C607800280FD0B4
:10220000FFF76EFF00F0EAF820702078A0702078C9
:1022100061688847002060708A4901224A7008700E
:1022200010BD8849887186484278022A02D1007818
:10223000012800D00220C8717047F8B50600804C14
:102240006078002801D00920F2BD00277D48477042
:1022500000F084F820700125032E2CD10220217873
:10226000012902D02178022902D10421E17003E082
:102270002178042900D1E070217802290CD1607006
:1022800000221021344802F0FDFB012220213248B7
:1022900002F0F8FB042039E0207803280BD000F08E
:1022A000BAFCFF2801D10620F2BD6649897A88422E
:1022B00001D20520F2BD20786670032E14D10428C7
:1022C00016D0012801D0022819D10122102122485C
:1022D00002F0D8FB002220211F4802F0D3FB207817
:1022E000042812D1082011E0012E0CD1012806D0BB
:1022F00000221021184802F0C5FB0122EBE76770AD
:10230000002061688847FF20F2BD06204D49087310
:102310000D700020F2BD10B50120FFF7EEFEFFF7B3
:10232000DFFE474C0020607000F018F8207046482F
:1023300060604648A0604648E0600020FFF7DDFE90
:1023400010BD00000000311069469020C00502F069
:10235000BDF905B000BD00000004004838B5384C98
:10236000384D687F3B49097801430FD10320FFF7BF
:1023700085FEFFF779FE0120FFF7BFFEFFF7D0FED5
:10238000A070012068770020FFF7B7FEA07832BD6B
:1023900000202C49487770472E480178002900D04A
:1023A000704710B501240470FFF75EFE0120FFF7AF
:1023B000A4FE0120FFF762FEFFF7B2FE20498870FD
:1023C0002048447710BD80B50320FFF757FE00205A
:1023D000FFF793FE00201F49087001BD10B5184C8F
:1023E000FFF79EFEA070A07810BD70B50400002914
:1023F00021D11848007800281DD1FFF7AFFF050054
:102400000F4E3078854218D02000113002F0BAFB10
:102410002100193102F0C2FB2000113002F0B2FBA2
:102420001534210002F0BAFB35700022D243290096
:10243000662000F0C9F9012070BD002070BD0000C9
:10244000180200200400002023220008A521000813
:10245000F721000830020020A14A5070000A907055
:10246000D170704738B59F4C9F482060E120000232
:10247000606080204001A0600020E060C021C900B1
:1024800021610C216161A061E06120626062200035
:10249000FDF710FECA4D28000B3002F073FBAA7A3C
:1024A00001002000FDF767FF31BD10B58D4C200005
:1024B000FDF7A8FF2000FDF747FE10BD80B5802185
:1024C000C901C04802F0CEFA012800D0002002BDA8
:1024D00038B5834A1070BB4D802424029020C0057B
:1024E000E1091278002A05D0022A0ED00BD3032A64
:1024F00010D011E002F0C6FA00222100280002F0FC
:10250000C1FA012032BD0122F4E7002202F0BAFA3A
:102510000122F2E70122F9E7002032BD10B5704C2C
:102520000F21200000F02EFE21000B31C44802F0E4
:1025300035FB0C20A07210BD70B588B004000E00F1
:102540001500684613A1202202F000FB20680168F4
:102550000122914301606846B10040586060100359
:10256000002D04D0022D09D004D3032D09D1002061
:10257000A06005E0A060C020C00001E0A06080086D
:1025800020612000FDF796FD0A20FEF7F0FE08B05E
:1025900070BD0000B004000060090000C01200001F
:1025A00080250000004B00000096000000E10000C4
:1025B00000C2010038B54B4D002203212800FFF76F
:1025C000BBFF0320FFF784FFCA4C0A20FEF7CFFEB3
:1025D00064230622211D2800FDF7EAFD0028F4D11E
:1025E0000621201D00F0CEFDFA239B000622211DAE
:1025F0002800FDF747FE0028E7D1E0798209800630
:10260000410F2800FFF798FF0020FFF761FF062128
:10261000201D00F0B7FD31BD38B56846B7A10A6886
:102620000260304D002203212800FFF785FF0320C0
:10263000FFF74EFFAF4C6420FEF799FE64230322A0
:1026400069462800FDF7B4FD0028F4D1FA239B0069
:102650000622211D2800FDF715FE0028EBD1E079A8
:1026600082098006410F2800FFF766FF0220FFF76E
:102670002FFF31BD70B506000D000024FFF71EFFCF
:10268000002807D1E4B2C82C04DA641C0220FEF74B
:102690006EFEF3E7E4B2C82C21DA11480078002876
:1026A00005D00A20FEF763FE0020FFF711FF0A2085
:1026B000FEF75DFEC823EDB22A0092B23100094850
:1026C000FDF776FD0A20FEF752FEFFF7F7FE002821
:1026D000FBD00A20FEF74BFE0220FFF7F9FE70BD8B
:1026E000540000206400002000380140F0B5A3B081
:1026F00000268148447A007A009001A8882100F0E1
:1027000043FD0098002858D0844201DB251A03E0DD
:102710000A200099401A051901AF294842788178AA
:102720000906090C0A43100A387025484278817856
:102730000906090C0A437A70C078B8702CE07C183E
:10274000E41CA52020700D2060701D484079000217
:102750001B4989790843A070000AE0700920607164
:102760006548EDB2A90049194018817F21711F30D9
:1027700002F008FAA11D02F011FA0A21F81C02F079
:1027800017FAA072000AE0725A2020736D1CEDB295
:102790000A2D00D10025761CF6B20D217143009858
:1027A0008642CCDB5448007A009A801A524A107252
:1027B000C91CC9B201A8FFF75DFF23B0F0BD00003E
:1027C0005400002000040048F0B585B005000E005C
:1027D00017006846102100F0D7FC46486C46427846
:1027E00081780906090C0A43110A21704278817820
:1027F0000906090C0A436270C178A170A521E17035
:102800000D21217141790902807901436171090A21
:10281000A1712672E57121000931380002F0BEF97C
:102820000A21E01C02F0C4F96073000AA0735A2068
:10283000E07310216846FFF71DFF05B0F0BD0000F2
:10284000E801002070B52B4D28000B3002F09AF9FA
:1028500004002078A5284CD1E07A5A2849D1A078E4
:10286000E1780906090C084369790902AA790A4343
:1028700090423ED10921200002F09AF9627AA17AB1
:102880000906090C0A43904233D120791A4D29795F
:1028900000291AD0697A8A005118691888776E7AE7
:1028A000601D02F06FF9B100891969181F3102F03B
:1028B00075F9287A401C2872687A401C6872687A18
:1028C0000A2814DB0020687211E02871601D02F0F4
:1028D00059F929000D3102F061F92079092801D157
:1028E0006078A87220790B2801D16078E872012005
:1028F000A87070BD5400002004000020C1C1C100B8
:10290000F0B500240EE03700413F1A2F01D2373EC8
:10291000F6B207883F01374307806D1C042D04DBA6
:10292000641CE4B2944211DA0025A6008E59EF002F
:10293000FE40F6B23700613F1A2F01D2573EE7E75B
:102940003700303F0A2FDED2303EE1E7F0BD10B550
:1029500030220270427000220B780124A41AA400D5
:10296000E3401B071B0F0A2B01DA303300E057331B
:10297000DBB28418A370521C022AEDDB10BDF0B547
:1029800087B00E0015001F0047490A68474B9A425E
:1029900001D000202DE04A6801928A680292CA683C
:1029A00003920A69049249690591012201A9FFF77E
:1029B000A7FF01AC0122211D3000FFF7A1FF01227A
:1029C000210008316846FFF79BFF012221000C31EE
:1029D0000C98FFF795FF0122103421000D98FFF7A6
:1029E0008FFF68460088287068460088000A3870A3
:1029F000012007B0F0BD72B589B00400002505952F
:102A000029480168294A914216D14168009181689C
:102A10000191C1680291016903914069049002F03B
:102A200087F90695204E07960120089005A906A86B
:102A300002F0F0F9002801D0012032E06846002CB5
:102A400003D1039509A90C3002E0049509A91030BF
:102A5000FFF77DFF154A00233100022002F0EAF85B
:102A6000009A00231249022002F0E4F8019A0023A0
:102A70001049022002F0DEF8029A00230E490220DB
:102A800002F0D8F8039A00230C49022002F0D2F891
:102A9000049A00230A49022002F0CCF802F04FF910
:102AA00000200AB070BD000000F0000846524F47F9
:102AB00004F0000808F000080CF0000810F000080E
:102AC00014F0000870B586B005008026F600009668
:102AD000012001900020029003900F4C69462000D5
:102AE00001F0F4FD022D04D02A003100200001F095
:102AF000C9FF3100200001F0B5FF002D05D0022DE7
:102B000003D006D2012804D101E0012802D0002020
:102B100000E0012006B070BD00040048FEB50024AE
:102B2000E44301A80021002206C02820544B195C70
:102B3000FF2909D10400C11E08D41818C01E00784E
:102B4000FF2803D10C0001E0401EF0D5002101AAAE
:102B500018E06D461F19BF782F701D196D78761912
:102B60006F463F78F619F6B21F19FF78BE4206D1BC
:102B70002D026E46367835434E009553491C032985
:102B80000DD0241F002C02D41E5DFF2EE1D00129A0
:102B900001D11088FEBD022901D15088FEBD1188E7
:102BA0000D460023002401267700D75B8F4201D217
:102BB00039003300BD4201D23D003400761C032EA3
:102BC000F2DB0021DBB2994202D0E4B2A14202D191
:102BD000491C0329F6DB4800105AFEBD80B5294880
:102BE0002949016096218901416000218160C1600D
:102BF0000161042242618161C16101624162FDF7AC
:102C000059FA01BD10B51F4C2000FDF7FBFB200059
:102C1000FDF79AFA10BD38B5FFF7E0FF1B4D802491
:102C2000A40100222100280001F02CFFFA23DB0080
:102C3000282213491348FDF725FB00280BD0012259
:102C40002100280001F01EFF0520FEF790FBFFF792
:102C5000D9FFFF2032BD01222100280001F012FF20
:102C60000520FEF784FBFFF7CDFFFFF757FF0A2192
:102C7000FFF764F880B2C92800DBC820C0B232BDBB
:102C8000A0010020D40000200044004000040048BF
:102C900080B5FFF7C0FF02BD10B586B004000091FB
:102CA0000192032A09D0002B01D1002004E001F099
:102CB000D9FE012800D0022002906946200001F0D0
:102CC00005FD06B010BD70B59025ED05012301226C
:102CD00011022800FFF7E0FFA84C01230122D103D5
:102CE0002000FFF7D9FF8026B60101223100200025
:102CF00001F0C8FE0023012231002000FFF7CCFFC5
:102D00000223012291022000FFF7C6FF01239C4A03
:102D100099032000FFF7C0FF9A480179012902D0EA
:102D20000079022812D10123012210212000FFF78F
:102D3000B3FF0123012220212000FFF7ADFF012373
:102D4000012240212800FFF7A7FF70BD00230322C6
:102D500010212000FFF7A0FF0023032220212000E4
:102D6000FFF79AFF0023012240212800FFF794FF7C
:102D700000224021280001F085FE002301221021BD
:102D80002800FFF789FF01221021280001F07AFEB8
:102D90000023012220212800FFF77EFF01222021AD
:102DA000280001F06FFE70BD10B582B0FFF78BFFF9
:102DB000744C2078002805D1052000F00BFA00287B
:102DC0000AD113BD207B002837D0207B00F002FA07
:102DD000002832D000202073A07800282DD1E07880
:102DE00000282AD16078002827D1FFF75EFBAB4C82
:102DF000A069C0490140A16180204005E16901430B
:102E0000E161E16908400090009820680121884351
:102E10002060012002F0C2F8FEF742FB607AFB213D
:102E20000140617220680121014321602068800710
:102E3000FCD5FEF724F8FFF715FB13BDF0B587B0FE
:102E4000AD48009003260196002402946946902024
:102E5000C00501F03BFCA948009001960294694628
:102E6000464801F033FCA64F00970196029469464C
:102E7000A44801F02BFC894D6869A34901406961B0
:102E80000097019602946946A04801F01FFCA048F3
:102E90006969014069616969402291436961E96931
:102EA0009C4A0A40EA61E9690140E961A9699A4AD4
:102EB0000A40AA61E969994A0A40EA610121C943C5
:102EC000AA690A40AA61AA69954B1340AB61EA69F5
:102ED00002239A43EA611022D243EB691340EB616B
:102EE000EB69904C1C40EC618F4BAC691C40AC61B1
:102EF000AC698E4E2640AE618D4CAE692640AE6107
:102F0000EE698A4F3740EF61EE69854F3740EF61D8
:102F10000426F6436F6937406F616F6917406F6130
:102F2000AF693840A86180204005EF690743EF6131
:102F3000EF69384005900598E8690240EA616869E0
:102F400008406861286808402860286803402B60B2
:102F5000286804402C60286A08402862286A0640D5
:102F60002E62686B01406963686B042101436963E9
:102F7000286870490140296007B0F0BD000400488E
:102F80000000311004000020F8B50400207900286A
:102F900031D0607901282ED1A6790025E079022868
:102FA00025D12000113001F0EDFD2100193101F093
:102FB000F5FD2000113001F0E5FD2100153101F093
:102FC000EDFD2079012802D02079022801D1FFF7F8
:102FD000FAF9277920000D3001F0D4FD020031000C
:102FE0003800FFF7F1FBE5712571A57102E0E0798A
:102FF000012800D16571F1BD10B5040020790028C9
:1030000020D0607900281DD120790E2805DB207999
:10301000652802D00020207110BD012060712000C1
:10302000113001F0AFFD2100193101F0B7FD200092
:10303000113001F0A7FD2100153101F0AFFD200096
:1030400002F00CF810BD70B505003B4C20001130AB
:1030500001F098FD06002000153001F093FDB0420C
:1030600003D2301AA84207D270BD864214D2334927
:103070007118081AA8420FD32000113001F082FD08
:103080001534210001F08AFDFFF702FE0100002245
:10309000D2430820FFF798FB70BD000000100240EB
:1030A000F8B504000D00244E3000113001F06AFD27
:1030B00007003000193001F065FDB84203D2381A1C
:1030C000A04207D2F1BD874212D21C497918081AD2
:1030D000A0420DD33000113001F054FD19363100FB
:1030E00001F05CFD0022D24329006520FFF76CFB54
:1030F000F1BD0000FFFDFFFF83FE0000CF1B0000BD
:10310000FFFF000000080048FFFFF7FF0014004821
:10311000FFFFBFFFFFFFDFFFFFEFFFFFFFBFFFFF6F
:10312000FFF7FFFFFFFEFFFFFFFFFEFFFFFFFDFFBB
:10313000FFFFFBFFFFFFFFFE0400002080510100A6
:10314000094205D0830705D00270401C491EF9D101
:1031500070470000130030B414001500103902D37A
:1031600010393CC0FCD2490700D30CC000D504C0C4
:10317000890002D30280801C002900D5027030BC77
:10318000704700000022DBE70022E3E730B587B09C
:1031900001A81421FFF7F8FF4CA000680090464CEE
:1031A000002201A9200000F017FE01A8434902787F
:1031B000E1231B015A4343783C256B43D2188078A6
:1031C000101801F0EBFC00226946200000F0EAFE36
:1031D00007B030BDF0B593B007000DA81421FFF77C
:1031E000D3FF00BF3AA00068029003A82821FFF790
:1031F000CBFF0024304D00220DA9280000F0ECFD8B
:10320000002202A9280000F0CDFEE12636010DA81B
:103210000178714342783C235A4389188078081812
:1032200027490A68904202D1002013B0F0BD08601F
:10323000C019019000238022520003A9280001F048
:10324000E5F880200006089003AF01983100FEF7F2
:1032500078FD1821FEF775FD397001983100FEF7F1
:1032600070FD009108463C21FEF76BFD78700098D8
:103270003C21FEF766FDB97080214900280001F06D
:103280007BF8002808D1002203A9280000F0CAFE1C
:10329000002801D10120C8E70520FEF768F8641C6A
:1032A000E4B2032CE8DBBFF34F8F06480649086001
:1032B000BFF34F8F00BFFDE7C801002015000020BD
:1032C000280200200400FA050CED00E000000000D8
:1032D00000000000F8B5040020685149884204D37A
:1032E0007E2100BF55A0FDF741FF4E4D2068C00371
:1032F0006AD5606800280ED0A90D88420BD049001D
:10330000884208D0C0218900884204D0842100BFAF
:103310004AA0FDF72BFF00268020400529680140C8
:1033200007D1296801432960296808400090009866
:1033300001263D480068C00512D43B480068A90D2D
:10334000014339480160FEF70FF80700364800686E
:10335000C00505D4FEF708F8C01B6528F6D325E0A4
:103360006968C0208000084022D06168C0229200B5
:103370000A4090421CD069682C4808406968802245
:1033800052020A436A606968294A0A406A606860B2
:10339000C0070DD5FDF7E8FF07006868800707D470
:1033A000FDF7E2FFC01B23498842F6D30320F2BD9C
:1033B00068681E490140606808436860002E03D0B9
:1033C00028681D49014029602078C00713D5A068EE
:1033D00000280AD0012808D0022806D0032804D0EB
:1033E000CB2100BF15A0FDF7C1FE6869032188430A
:1033F000A16801436961207880060ED5E068002845
:1034000005D0102803D0EF210CA0FDF7AFFE6869AE
:1034100010218843E168014369610020F2BD00008A
:10342000220001001C10024000700040FFFCFFFF62
:10343000FFFFFEFF89130000FFFFFFEF433A5C55DB
:10344000736572735C41646D696E697374726174E3
:103450006F725C6C6F72615C656E64706F696E74C4
:10346000315C447269766572735C53544D333246F5
:103470003078785F48414C5F4472697665725C537E
:1034800072635C73746D3332663078785F68616C38
:103490005F7263635F65782E63000000F8B5040017
:1034A0000025002C01D10120F2BDA94E2068A949B8
:1034B000884204D0FF2174313000FDF757FE606868
:1034C00000280CD08021C905884208D08021090637
:1034D000884204D0BA2149003000FDF747FEA068B9
:1034E00000280AD0082808D0102806D0182804D0B0
:1034F000FF2176313000FDF739FEE068002806D064
:10350000202804D0BB2149003000FDF72FFE2069A0
:10351000012806D0022804D0FF2178313000FDF7C1
:1035200025FE206A002806D0012804D0BC214900CD
:103530003000FDF71BFE606A002806D0012804D089
:10354000FF217A313000FDF711FEE06A00280FD02C
:103550008021C90088420BD04900884208D0C02190
:103560000901884204D0BD2149003000FDF7FEFD6D
:10357000A06A00280ED040280CD0C0280AD0802194
:103580004900884206D0C131884203D04639300014
:10359000FDF7ECFD206B002806D0012804D0BE21E9
:1035A00049003000FDF7E2FD6069042806D00828D4
:1035B00004D0FF217E313000FDF7D8FD606B01287B
:1035C00006D0002804D0BF2149003000FDF7CEFD11
:1035D000A069002806D0012804D0FF2180313000E6
:1035E000FDF7C4FDE069002806D0012804D0C02101
:1035F00049003000FDF7BAFD606C002805D1A064D9
:10360000402160542000FDF7EDFD01211022606C87
:10361000104003D1236804209E68064000D090E04B
:10362000676C684E3E400227374367649E68B60762
:10363000B60F012E05D11E680E400FD1DE6836048C
:103640000CD4DE681827BE43A7683743DF602368C1
:103650001E69B600B608676837431F612368DE68D5
:10366000594F3740DF60636B012B01D0860200E0C9
:1036700000262369022B01D1009000E00095236A07
:10368000A0698003E769FF030743580338430643F3
:10369000E0683043009E0643206B40003043666A7A
:1036A000012E0CD1002B03D103000804184306E0BF
:1036B000636C20261E436664A36C0B43A364A36A59
:1036C000FF26C236B34203D00600E06A18433043F7
:1036D0002368DE680643DE60A36B0E07B3420DD09D
:1036E000012B0BD0022B09D0032B07D0042B05D0C4
:1036F000052B03D0062B01D0072B0CD123685E6964
:103700000727BE435E6123685E693827E75D7F0750
:103710007F0F37435F610223DB432668F6682D4F36
:103720003740874205D1A564606C0340194361644A
:103730000BE0606C03401A436264A06C0843A06411
:1037400002E0606C0243626401252800F2BD0000C3
:10375000703A000800240140F8B504000027002555
:1037600020681A49884203D01B491948FDF7FEFC1E
:10377000042620688068304021D14020205C012848
:1037800001D10220F2BD012040216054E0690128EE
:1037900004D0200000F02AF9050011D1606C0F4917
:1037A0000140B00108436064A764402027541C20F6
:1037B00021680860206881680E43866000E0022569
:1037C0002800F2BDFFFEFFFF1902FEFF00240140AA
:1037D000703A0008E7FF3F83FB020000FEF1FFFFA5
:1037E00010B5040020680549884203D00549044803
:1037F000FDF7BCFC2068006C10BD000000240140F7
:10380000703A000865050000FEB504000D000020B8
:103810006946087200906B4E20686B49884203D05D
:103820006A493000FDF7A2FC2868002825D001284D
:1038300023D0022821D003281FD004281DD005281A
:103840001BD0062819D0072817D0082815D009281A
:1038500013D00A2811D00B280FD00C280DD00D281A
:103860000BD00E2809D00F2807D0102805D011281A
:1038700003D057493000FDF779FC68688021490181
:10388000884206D0491C884203D052493000FDF7D7
:103890006DFCA06B80277F05B84222D0012820D084
:1038A00002281ED003281CD004281AD0052818D0BE
:1038B000062816D0072814D0A868B84211D00128CD
:1038C0000FD002280DD003280BD0042809D00528DA
:1038D00007D0062805D0072803D03F493000FDF760
:1038E00045FC4020205C012801D10220FEBD0120C2
:1038F0004022A05422689168490757D4296888401B
:103900000190780941086B68344EB342936A019E76
:103910003ED01E439662A26BBA421DD0012A1BD034
:10392000022A19D0032A17D0042A15D0052A13D049
:10393000062A11D0072A0FD023680722AE685F69D4
:103940001740BE4208D05E6996435E6123685E6997
:10395000AF683A4032435A612A68102A02D0112ACD
:103960002AD108001E49096808431D4908602868D3
:10397000102821D11B4800681B49FEF7E2F90A21F3
:10398000484300900098002816D00098401EF8E7A1
:10399000B34393622A68102A02D0112A0CD108007E
:1039A0000F49096881430E48016005E0616C2022DF
:1039B0000A436264694608720020403420706846F9
:1039C000007AFEBD703A0008002401405106000054
:1039D00052060000530600005706000001100000C8
:1039E000082701400000002040420F00F8B5040005
:1039F000002000902068012581688907890F01292E
:103A000005D10168294023D1C168090420D41026BA
:103A10008168144A0A401AD181682943816012489A
:103A200000681249FEF78DF901E00098401E0090F1
:103A300000980028F9D1FDF797FC0700206800687E
:103A4000284005D1FDF790FCC01B0328F6D301E008
:103A50000020F2BD606C06436664A06C0543A5645B
:103A60000120F2BD170000800000002040420F003E
:103A7000433A5C55736572735C41646D696E69733A
:103A8000747261746F725C6C6F72615C656E64708D
:103A90006F696E74315C447269766572735C5354FD
:103AA0004D3332463078785F48414C5F44726976D6
:103AB00065725C5372635C73746D33326630787810
:103AC0005F68616C5F6164632E63000038B5040059
:103AD00000D180E0494D20684949884203D09F21A8
:103AE0002800FDF743FB6068402805D0002803D07C
:103AF000A0212800FDF73AFBA068802803D3A1216C
:103B00002800FDF733FBE06880210902884203D3D7
:103B1000A2212800FDF72AFB2069002807D0802178
:103B20008903884203D0A3212800FDF71FFB6069A9
:103B3000002807D080214903884203D0A42128000F
:103B4000FDF714FBA069002807D08021C902884234
:103B500003D0A5212800FDF709FB607F002803D1D1
:103B600020772000FDF75BFB02206077CA202168E8
:103B70004862532021684862FF25200000F0CEFCF7
:103B8000002824D120688168924A0A408260206817
:103B9000816862682369134362691A430A43826039
:103BA000E0682168086120680169A26812040A437C
:103BB00002612068C16880229143C16020688068EA
:103BC00080060AD4200000F08FFC002805D0206871
:103BD000456204206077012032BD2068016C964A5E
:103BE0000A4002642068016CA2690A4302642068EA
:103BF000456201206077002032BD0000A445000826
:103C000000280040F8B504000D0017008B4E06D0C8
:103C1000012F04D0FF21A0313000FDF7A7FAE8689A
:103C200080218902884209D04908884206D00028AC
:103C300004D0D02149003000FDF798FA2869002807
:103C400008D08021C902884204D0FF21A23130006F
:103C5000FDF78CFA207F012801D10220F2BD01205E
:103C6000207702206077287822684021002F926810
:103C70003AD1114010D0002801D00D2804D3D6210C
:103C800049003000FDF772FAE87800280CD040288F
:103C90000AD0FF21AE3104E0E970182804D3D921FD
:103CA00049003000FDF762FA68783C2804D3DA2135
:103CB00049003000FDF75AFAA8783C2804D3FF21C8
:103CC000B6313000FDF752FA287800F057FC0700B3
:103CD000687800F053FC0600A87800F04FFC390427
:103CE00032020A43104339E0114012D000F051FC77
:103CF000002801D00D2804D3FF21C2313000FDF788
:103D000035FAE87800280ED040280CD0E12149008F
:103D100006E0E97000F03DFC182804D3FF21C8310B
:103D20003000FDF723FA687800F033FC3C2804D318
:103D3000FF21CA313000FDF719FAA87800F029FCFC
:103D40003C2804D3E52149003000FDF70FFA28781C
:103D50000004697809020143A8780843E9780F0450
:103D60000743CA2021684862532021684862FF2621
:103D7000200000F0D3FB00281DD19E483840216868
:103D80000860206881682C4A0A4082602068816847
:103D9000EA682B6913430B4383602068C168802263
:103DA0009143C1602068806880060CD4200000F038
:103DB0009BFB002807D02068466204206077002023
:103DC00020770120F2BD2068466201206077002044
:103DD0002077F2BDBFFF8FFF70B506000C00150005
:103DE00005D0012D03D084491448FDF7BFF9306890
:103DF000816A616001694904490CA16001687D48DC
:103E00000840010C8A06920E2270020A6270A070AD
:103E100040200140E170002D0BD1207800F0B9FB6B
:103E20002070607800F0B5FB6070A07800F0B1FB06
:103E3000A070002070BD0000FFFFFBFFA44500083C
:103E4000F8B504000D0017006C4E05D0012F03D00B
:103E50006B493000FDF78AF9207F012801D102204B
:103E6000F2BD0120207702206077002F06D168780C
:103E7000C10603D5EF2101400A3169702878012875
:103E80000FD002280DD003280BD0042809D0052814
:103E900007D0062805D0072803D05A493000FDF77F
:103EA00065F9E878002F28D1642803D356493000FB
:103EB000FDF75CF96878002801D00D2803D3534939
:103EC0003000FDF753F9A878002801D0202804D34A
:103ED000992189003000FDF749F9E87800F04EFBA0
:103EE0000700687800F04AFB0600A87800F046FB5F
:103EF000390432020A43104324E000F04AFB6428EC
:103F000003D343493000FDF731F9687800F041FBF5
:103F1000002801D00D2803D33E493000FDF726F9D3
:103F2000A87800F036FB002801D0202803D33A49B6
:103F30003000FDF71BF9E8780004697809020143B5
:103F4000A878084329784F030743CA2021684862AC
:103F5000532021684862FF250026200000F0DEFA89
:103F6000002811D12D483840216848602068C16878
:103F700080229143C1602068806880060BD42000B5
:103F800000F0B2FA002806D020684562042060776D
:103F900026770120F2BD20684562012060772677F0
:103FA0000020F2BD70B506000C00150005D0012DF3
:103FB00003D01B491148FDF7D9F83068416817480C
:103FC0000840010CE170C104C90E6170A0700004CA
:103FD000400F2070002D0BD1E07800F0DAFAE0708D
:103FE000607800F0D6FA6070A07800F0D2FAA07085
:103FF000002070BD7F7F7F0026020000A4450008DE
:10400000520200005E020000620200006302000033
:104010006D0200006F020000710200003FFFFF0010
:10402000C1020000F7B504000D00924E002A06D030
:10403000012A04D0E32189003000FDF797F8686A6F
:1040400080214900884203D0B1493000FDF78EF845
:104050006869B049014003D0AF493000FDF786F8E8
:10406000E869002807D08021C905884203D0AB4900
:104070003000FDF77BF8686880210902884204D38C
:10408000E42189003000FDF771F8A86900283ED0CE
:104090008021490488423AD04900884237D0C02163
:1040A0008904884233D08021C90488422FD0A021BE
:1040B000C90488422BD0C021C904884227D0E021FE
:1040C000C904884223D08021090588421FD090214D
:1040D000090588421BD0A0210905884217D0B021CC
:1040E0000905884213D0C021090588420FD0D0218C
:1040F000090588420BD0E0210905884207D0F0214C
:104100000905884203D093493000FDF72FF8207F3E
:10411000012801D10220FEBD012020770220607716
:104120002878226840210027029B002B926864D1E6
:1041300011400FD0002801D00D2804D3E7218900B9
:104140003000FDF713F8E87800280AD0402808D09E
:10415000A94903E0EF70182803D3A8493000FDF700
:1041600005F868783C2804D3E92189003000FCF781
:10417000FDFFA8783C2803D3A1493000FCF7F6FFE7
:104180002020285CE969002905D1002801D02028D9
:1041900013D39C490EE001280FD002280DD003282C
:1041A0000BD0042809D0052807D0062805D00728F9
:1041B00003D095493000FCF7D9FF287800F0DEF9EC
:1041C00069464870687800F0D9F90600A87800F0D0
:1041D000D5F9694608702020285C00F0CFF96946BF
:1041E0004978090432020A43694609781143EA789A
:1041F00012040A430006104361E0114011D000F0A0
:10420000C8F9002801D00D2804D3EF21890030001F
:10421000FCF7ACFFE87800280CD040280AD0AE4963
:1042200005E0EF7000F0B5F9182803D3AB49300072
:10423000FCF79CFF687800F0ACF93C2803D3A84950
:104240003000FCF793FFA87800F0A3F93C2803D3D3
:10425000A4493000FCF78AFF2020285CE969002986
:104260000AD100F096F9002801D0202819D3AA49D4
:1042700014E000BFA445000800F08BF9012810D01D
:1042800002280ED003280CD004280AD0052808D014
:10429000062806D0072804D0F42189003000FCF756
:1042A00065FF28780004697809020143A87808436B
:1042B000E978090401432020285C00060843E969E5
:1042C00001436E690E436868A96901430191CA20E0
:1042D00021684862532021684862206881689D4AAD
:1042E0000A4082602068C168802211409A4A0A43CD
:1042F000C260FDF739F805002068C168C9070FD40E
:10430000FDF732F8401B95498842F5D324E000BF01
:104310008D0300007F7F7F7F8E0300008F030000EE
:10432000C661019821684864206881688022520033
:104330000A43826020688168802252010A438260B9
:104340008020800286490A6802430A608A68104316
:10435000886008E091030000FF2021684862032084
:1043600060772777FEBDFF202168486201206077D3
:1043700027770020FEBD000070B5040080204000BB
:10438000814204D0774900BF86A0FCF7EFFE207F72
:10439000012801D1022070BD012525770220607718
:1043A000CA202168486253202168486220688168D9
:1043B000684A0A408260206881686B4A0A408260CD
:1043C000FCF7D2FF06002068C16829400ED1FCF737
:1043D000CBFF801B61498842F5D3FF2021684862EA
:1043E0000320607700202077032070BDFF21416209
:1043F00065770020207770BD9D030000A2030000B8
:10440000A5030000A9030000AD030000F5B581B0CD
:104410000C001E0063A705D0012E03D053493800BD
:10442000FCF7A4FE80256D000298A84203D05049F5
:104430003800FCF79BFE656201980168C869496C09
:10444000020C3F233F25154025707F25070A2F408A
:1044500067700540A57040252A40E2704904490C68
:104460006160010E0B402021635449060140E16167
:10447000404901406161002E11D1207800F089F897
:104480002070607800F085F86070A07800F081F806
:10449000A0702020205C00F07CF8203420700020E8
:1044A000FEBD10B5040020688168C9040CD5C06841
:1044B000C00509D52000FCF7B3FF2068C168802241
:1044C0001140254A0A43C260802080022A490860C0
:1044D0000120607710BD0000BD030000C203000092
:1044E000C5030000C603000038B504002068C16899
:1044F000A0229143C160FCF737FF05002068C06827
:10450000800607D4FCF730FF401B14498842F5D3DE
:10451000032032BD002032BDCB03000070B5040083
:1045200020684025C168294011D10021C943C160DC
:10453000FCF71AFF06002068C068284007D1FCF786
:1045400013FF801B05498842F5D3032070BD00206E
:1045500070BD0000FFFEFFFF7FFEFFFFE9030000CC
:10456000000401401E040000FFEFFFFF5C04000098
:104570005D0400008080808014040140002101E07F
:10458000491C0A38C0B20A28FAD209010843C0B24D
:10459000704701090A2251430007000F0818C0B2F2
:1045A00070470000433A5C55736572735C41646DFB
:1045B000696E6973747261746F725C6C6F72615C46
:1045C000656E64706F696E74315C44726976657291
:1045D000735C53544D3332463078785F48414C5FBA
:1045E0004472697665725C5372635C73746D3332C6
:1045F000663078785F68616C5F7274632E63000068
:1046000038B504000D0008D080200003854204D096
:10461000044900BF15A0FCF7A9FD207F012803D1A4
:10462000022032BD4B050000012020770221617776
:10463000CA212268516253212268516221688A6826
:10464000004B01E0FFFFF7FF13408B6021688A6891
:1046500015438D6021688A68C30513438B60FF2171
:104660002268516260770020207732BD433A5C5562
:10467000736572735C41646D696E697374726174A1
:104680006F725C6C6F72615C656E64706F696E7482
:10469000315C447269766572735C53544D333246B3
:1046A0003078785F48414C5F4472697665725C533C
:1046B00072635C73746D3332663078785F68616CF6
:1046C0005F7274635F65782E63000000F0B585B09B
:1046D00004000D0000269020C00584420FD08D48B4
:1046E00084420CD08C48844209D08C48844206D045
:1046F0008B48844203D0C1218A48FCF737FD2868E3
:10470000010402D0000C000403D0C2218548FCF74C
:104710002DFD686800281FD001281DD011281BD04E
:10472000022819D0122817D07F49884214D07F4917
:10473000884211D07E4988420ED07E4988420BD0F3
:104740007D49884208D07D49884205D0032803D09E
:10475000C3217448FCF70AFDA868002834D001285A
:1047600032D0022830D0C4216E48FCF7FFFC2BE089
:10477000052393400B43036071480268009BD943B3
:104780000A406B68DB0302D51300009A1A430260EB
:1047900042680A406B689B0302D51300009A1A43D3
:1047A000426082680A406B68DB0202D51300009AFF
:1047B0001A438260C26811406A68920202D50A00F8
:1047C00000991143C160761C28680100F14000D1B6
:1047D0009EE00121B1400391014000910098002822
:1047E000F1D068680F27022801D0122821D190202B
:1047F000C005844206D04748844203D0D3214948AB
:10480000FCF7B4FC2869072803D3D4214548FCF7FA
:10481000ADFCF00880002118086A7207D20E0F2341
:10482000934098432B699C46130062469A4002438A
:104830000A62206871006A4611720321127A91405F
:10484000CA4301921146014028798007800F6A46C9
:10485000127A9040084320606868012805D0022839
:1048600003D0112801D012281DD1E868002808D0F3
:10487000012806D0032804D0E82100BF9CA0FCF743
:1048800075FCA16801980840E9686A46127A91406F
:104890000143A1606068039988436968CA06D20F22
:1048A000B24002436260E16801980840A9686A4624
:1048B000127A91400143E1606868C00083D5844862
:1048C000016801220A4302600068C107C90F019113
:1048D00001988048B108890040180168B207120F9A
:1048E0009740B9439023DB059C4201D1002340E768
:1048F000084B9C4201D101233BE7074B9C4201D16D
:10490000022336E7054B9C4200D031E7032330E712
:1049100005B0F0BD0004004800080048000C004845
:1049200000140048F04A0008000011100000211097
:1049300000003110000012100000221000003210A0
:1049400000040140F2B584B00400002568A6902060
:10495000C005844210D0604884420DD05F48844234
:104960000AD05F48844207D05E48844204D09F2129
:1049700049003000FCF7FAFB0498000403D00498C7
:10498000000C00041ED0FF2140313000FCF7EEFB8C
:1049900018E0052181408B4213D101980068B04393
:1049A000019908600399C8434F490A6802400A60A8
:1049B0004A6802404A608A6802408A60CA681040B9
:1049C000C8606D1C0498E84049D001210120A8402E
:1049D00002900498029A0240039203980028F0D0B3
:1049E0006B0003209840C34300932068034023607A
:1049F000E808800023180F261F6ABC466807C70E08
:104A00000F20B840674687431F62A068009B0340A1
:104A1000A3606068029B98436060E068009B03406D
:104A2000E3602C48AB089B00C01801900368032783
:104A30002F40B800864033409027FF05BC4201D18B
:104A40000021A7E7244FBC42A4D024498C4201D1C5
:104A500002219FE722498C429BD103219AE705B0AE
:104A6000F0BD000038B505000C0004D1FF218E31E7
:104A70001FA0FCF77BFB2869204000D00120C0B2BA
:104A800032BD0000F8B504000D00170018A6002D77
:104A900004D1D62149003000FCF768FB002F08D074
:104AA000012F04D0FF21AE313000FCF75FFBA56180
:104AB000F1BDA562F1BD00000C4A1368034000D1AE
:104AC000704780B51060FCF7B3FC01BD000000002A
:104AD0001810024008000140000400480008004887
:104AE000000C004800140048000401401404014078
:104AF000433A5C55736572735C41646D696E6973AA
:104B0000747261746F725C6C6F72615C656E6470FC
:104B10006F696E74315C447269766572735C53546C
:104B20004D3332463078785F48414C5F4472697645
:104B300065725C5372635C73746D3332663078787F
:104B40005F68616C5F6770696F2E630070B4103AC4
:104B500003D378C9103A78C0FBD2530701D318C9E0
:104B600018C001D508C908C0D20704D30B88038038
:104B7000891C801C002A01D50B78037070BC70471B
:104B80007047FEE7C3788278417800781B021A43A9
:104B900009021204084310437047FEE78446087078
:104BA000000A4870000A8870000AC87060467047A2
:104BB000E1B581B000230A00511ED2B2002A26D0EE
:104BC000019A12786D462A70019A521C01920025B2
:104BD00000226E46377801269640374206D02E00D6
:104BE0000727BF1A0125BD403543EDB2521C082AE4
:104BF000EFDB1A002B02534008225D001B0402D594
:104C00000B4B6B4000E02B00521ED4D0F5E7002187
:104C1000012090409DB2054205D00F20851A012049
:104C2000A840084381B2521C102AF1DB0800E6BDFF
:104C300005800000F2B50CB40400474F387E01280F
:104C400001D10220FEBD01253D7600BF20A6012C2A
:104C500007D0022C05D0032C03D0C1213000FCF773
:104C600085FA0298F821090640182904884203D3DE
:104C7000C2213000FCF77AFA3E4800F07DF80026A9
:104C8000002822D1012C04D0022C01D1022500E001
:104C90000425002401E0641CE4B2AC4215DA684645
:104CA00003C8220100F070FA81B2029862008018F5
:104CB00000F054F82F4800F05FF8504909680122CD
:104CC00091434E4A11600028E5D03E76FEBD0000BB
:104CD000433A5C55736572735C41646D696E6973C8
:104CE000747261746F725C6C6F72615C656E64701B
:104CF0006F696E74315C447269766572735C53548B
:104D00004D3332463078785F48414C5F4472697663
:104D100065725C5372635C73746D3332663078789D
:104D20005F68616C5F666C6173682E6300000000F1
:104D30003448C168090600D508E0012070472F48B3
:104D4000016880220A430260002070472E490160FA
:104D50002E49016000207047F801002010B50022A4
:104D60002B4BDA61254A136801241C43146001802F
:104D700010BD000050C3000070B50500FCF7F4FA48
:104D800006001F4C2068C0070CD50020C043854298
:104D9000F8D0002D04D0FCF7E7FA801B8542F1D251
:104DA000032070BD20202168014000D020602068D1
:104DB000C00602D42068400703D500F004F80120A3
:104DC00070BD002070BD30B50022114810230C4981
:104DD0000C681C4004D0C26902241443C461102230
:104DE00004230C681C4006D0C46901252543C56115
:104DF0001000042202430A6030BD0000102002406F
:104E00000C2002400420024023016745AB89EFCD0E
:104E1000F8010020F2B5050001200124324F397E4F
:104E2000012901D10220F2BD387628682F4E0028D2
:104E30001AD0012806D0B8213000FCF797F928686D
:104E4000012811D12A48FFF797FF002847D100F029
:104E500055F82748FFF790FF040026480068042112
:104E60008843244908603AE06868F8210906401838
:104E70002104884203D3CE213000FCF777F968681B
:104E8000A96889024018401E1B49884203D3CF21DC
:104E90003000FCF76BF91648FFF76EFF00281ED1B3
:104EA0000020C043009908606E6801E0080D3618C4
:104EB000A868800269684018864210D2300000F06D
:104EC0002BF80B48FFF758FF04000A48006802213E
:104ED000884308490860002CE8D00098066000204C
:104EE00038762000F2BD0000F80100203C4F000899
:104EF00050C30000102002400000010800200E49AD
:104F0000C8610C48016804220A430260016840221B
:104F10000A430260704700000021074AD161054939
:104F20000A68022313430B6048600868402202436A
:104F30000A60704710200240F8010020433A5C5597
:104F4000736572735C41646D696E697374726174C8
:104F50006F725C6C6F72615C656E64706F696E74A9
:104F6000315C447269766572735C53544D333246DA
:104F70003078785F48414C5F4472697665725C5363
:104F800072635C73746D3332663078785F68616C1D
:104F90005F666C6173685F65782E630070B50400AE
:104FA0000D0000BF16A6002C06D0012C04D0FF2156
:104FB0004E313000FCF7DAF8012D06D0022D04D076
:104FC000A72149003000FCF7D1F80B480168032203
:104FD00091430C4304600948016804220A430260BB
:104FE000012D01D130BF02E040BF20BF20BF0168CA
:104FF00004229143016070BD0070004010ED00E09C
:10500000433A5C55736572735C41646D696E697394
:10501000747261746F725C6C6F72615C656E6470E7
:105020006F696E74315C447269766572735C535457
:105030004D3332463078785F48414C5F4472697630
:1050400065725C5372635C73746D3332663078786A
:105050005F68616C5F7077722E630000F8B50500C1
:105060002F790026012F1AD0022F1CD0032F21D018
:10507000042F2DD0052F2FD0062F2FD0072F2FD064
:10508000082F30D0092F32D00A2F35D00B2F35D032
:105090000C2F36D00D2F36D0652F24D03CE0FDF7F5
:1050A0007BF9032002E0FDF777F90120FDF7C5F851
:1050B00004003BE0FDF752F904002F7928000D3081
:1050C000FFF760FD020021003800FDF77DFB53E093
:1050D0000120FDF7F7FCEFE70020FAE70220F8E7F0
:1050E00000F062F8E8E7FDF7D3FD040015E0A97AC7
:1050F0000020FDF780FCDFE7AC7ADEE7E97A0120EB
:10510000F7E7EC7AD9E7BFF34F8F1D481D490860D8
:10511000BFF34F8F00BFFDE7FF247F1E012F05D98E
:10512000BF1E092FC9D9623FC7D025E0200005D096
:10513000601F012811D9FA380ED0F1BDE879012895
:105140001CD02C790D352800FFF71CFD02006321CF
:105150002000FDF739FBF1BD0024FDF734F92F796C
:1051600028000D30FFF70EFD020021003800FDF78A
:105170002BFB6E71EE7100E06E712E71F1BD00BF00
:105180000400FA050CED00E0D2B2203A03D3080087
:10519000D040002170472032D141D040484091405A
:1051A000D14048407047FEE7F0B585B080208000D0
:1051B00033490A6802430A60096808400090009871
:1051C000304C022020612000FEF768F91120019088
:1051D0008020400102900327039701A92000FEF7D9
:1051E00013FB29480688200000F058F82000FEF73D
:1051F000B3FA0425206800682840FBD0300000F096
:10520000E1F8224900F0EDF806002000FEF7E8FA88
:1052100000F0D8F80100300000F03DF900900126C0
:1052200026612000FEF73AF90196A8020290039742
:1052300001A92000FEF7E8FA2000FEF78DFA2068A9
:1052400000682840FBD02000FEF7CAFA00F0BAF848
:10525000009900F0C6F80E4900F01DF90D4900F064
:105260006FF90D4900F0BDF800F0F6F9C4B2652CF5
:1052700000DB64240A20FCF77AF8200005B0F0BDBA
:105280001810024054010020BAF7FF1F3333534077
:1052900000F07F45C4EAA1BF4D331643F0B583B09B
:1052A00004000025002720682C49884203D078217B
:1052B0002CA0FBF75BFF4020205C012801D10220DD
:1052C000FEBD0126402166542068032182680A4001
:1052D000012A0BD10268324002D1C268120405D5FE
:1052E000606C202101436164012732E0636C1C4A39
:1052F0001A40022313436364C26811400191C168DC
:1053000003229143C16020688168802212060A430B
:105310008260FCF729F800902068816800290FD589
:10532000FCF722F80099401A0328F5D3606C02219B
:105330008843102101436164403425700120FEBD83
:10534000C168019A0A43C260606C02218843064327
:105350006664403425703800FEBD00000024014022
:10536000FFFEFFFF433A5C55736572735C41646DE9
:10537000696E6973747261746F725C6C6F72615C78
:10538000656E64706F696E74315C447269766572C3
:10539000735C53544D3332463078785F48414C5FEC
:1053A0004472697665725C5372635C73746D3332F8
:1053B000663078785F68616C5F6164635F65782EE2
:1053C000630000009D2102000AD002D4491E9218F9
:1053D000FCD5C905100A1206524100D3012A4841E2
:1053E000704730B405004D400122D20715404B18DC
:1053F0000418240E30D01B0E34D0FF2C36D0FF2BD7
:105400003CD0E4180002090210431143000A090AC3
:105410009446C2B24A43000AC3B24B43000A48430F
:10542000110A5B18190A12061B0C1A43120A0918F2
:1054300001D44918641E080A7F3C23DBFE2C08DADD
:10544000E40509061143634699416041284330BC95
:105450007047FF20C005F9E728001B0EFF2BF6D18F
:10546000D043F4E72800FF2CF1D1F9E74002F7D14F
:10547000FF2B01D14902F3D1E005E7E7D805490246
:10548000E4D0EDE743020020641CDFD15B129B1CDB
:10549000DCD9D805DAE730B405004D400122D20747
:1054A00015404B180418240E28D01B0E2FD0FF2CAB
:1054B00034D0FF2B37D0E41A000209021043114305
:1054C00043084808D10D1B1A02D2641EDB181B18B2
:1054D000DB18834200D31B1A4941F9D37F3426DD00
:1054E000FE2C08DAE4054808C907194391416041D8
:1054F000284330BC7047FF20C005F9E728001B0E89
:1055000003D0FF2BF5D14902F3D0D043F1E7FF2CB4
:1055100001D14002F9D1FF20C005E9E74002F4D1F2
:10552000FF2BF8D1F1E728004902E2D0EDE70B02AA
:1055300000202442DCD15B129B1CD9D9D805D7E7C7
:105540000122D20703004B402ED4431A01D2C01AC5
:10555000C91830B44B180418240E1B0E22D0FF2C8F
:1055600020D0E31A182B1DDC09021143C40D641E60
:105570000002104394461925ED1A0A00AA40D940AA
:10558000451801D36D08A41CE405D209280A2D068C
:105590002A436546AA41604103181B0EFF2B01D325
:1055A000C00DC00530BC7047514001E05140CCE710
:1055B000431A03D2C01AC9185040514030B44B1896
:1055C000090211430418240E1B0E40D0FF2C3AD0C0
:1055D00025009D410BD31ED8C50D4002401A0BD3A8
:1055E000ED050100400AC90591416841DAE7C50DA2
:1055F00040024918401AD5D001214008491C001822
:10560000FCD58C4204D36D1A000AED054019C9E798
:10561000E8051040C6E7182DC4DCAC1C0D00E140C5
:10562000E5414D40012D4941C40D00021043451A8A
:1056300001D46D199543641EE405280A2D06954191
:10564000604130BC7047FF2BACD1D843AAE724425D
:10565000A8D10020A6E7FEE70122D2070118090E13
:105660007F3910D449421F310FD4001805D2C00130
:105670001043C84000D5D0437047C0011043C84014
:1056800005D440427047002070470042F3D5100017
:105690007047FEE71148016801220A430260416831
:1056A0000F4A0A40426001680E4A0A4002600168DF
:1056B0000D4A0A40026041680C4A0A404260C16AD1
:1056C0000F229143C162016B094A0A400263416B98
:1056D0000122914341630021816070470010024024
:1056E0000CB8FF08FFFFF6FEFFFFFBFFFFFFC0FF48
:1056F000ECFEFFFF000000000000000001020304B8
:105700000607080930B401210268001D002A0FD0E5
:105710000368C318446808300C4202D04D466D1E21
:1057200064191D6825601B1D241D121FECD0F8E7AD
:1057300030BC704710B5074979441831064C7C4499
:10574000163404E0081D0A68891888470100A14240
:10575000F8D110BD080000002800000013BAFFFFB8
:1057600030020000040000200000000099FFFFFF4D
:105770000400000094000000000000200000000071
:1057800000F00BF8002801D0FFF7D4FF0020C0463E
:10579000C046FBF765FA00F002F80120704780B5BB
:1057A00000F002F801BDFEE70746384600F002F8B7
:1057B000FBE7FEE780B5C046C046024A110018204C
:1057C000ABBEFBE7260002000148804701480047C6
:1057D00095560008D9570008C046C046C046C04686
:1057E000FFF7CEFF0000000001020304FEE7FEE722
:1057F000FEE7FEE7FEE7FEE7FEE7FEE7FEE7FEE781
:0C580000FEE7FEE7FEE7FEE700127A007C
:04000005080057D9BF
:00000001FF
